{
  "_format": "hh-sol-artifact-1",
  "contractName": "FETSStaking",
  "sourceName": "contracts/Stake.sol",
  "abi": [
    {
      "inputs": [
        {
          "internalType": "address",
          "name": "_token",
          "type": "address"
        }
      ],
      "stateMutability": "nonpayable",
      "type": "constructor"
    },
    {
      "inputs": [
        {
          "internalType": "address",
          "name": "owner",
          "type": "address"
        }
      ],
      "name": "OwnableInvalidOwner",
      "type": "error"
    },
    {
      "inputs": [
        {
          "internalType": "address",
          "name": "account",
          "type": "address"
        }
      ],
      "name": "OwnableUnauthorizedAccount",
      "type": "error"
    },
    {
      "inputs": [
        {
          "internalType": "address",
          "name": "token",
          "type": "address"
        }
      ],
      "name": "SafeERC20FailedOperation",
      "type": "error"
    },
    {
      "anonymous": false,
      "inputs": [
        {
          "indexed": true,
          "internalType": "address",
          "name": "previousOwner",
          "type": "address"
        },
        {
          "indexed": true,
          "internalType": "address",
          "name": "newOwner",
          "type": "address"
        }
      ],
      "name": "OwnershipTransferred",
      "type": "event"
    },
    {
      "inputs": [
        {
          "internalType": "address",
          "name": "account",
          "type": "address"
        }
      ],
      "name": "addAdmin",
      "outputs": [],
      "stateMutability": "nonpayable",
      "type": "function"
    },
    {
      "inputs": [
        {
          "internalType": "uint256",
          "name": "amount",
          "type": "uint256"
        }
      ],
      "name": "adminWithdraw",
      "outputs": [],
      "stateMutability": "nonpayable",
      "type": "function"
    },
    {
      "inputs": [
        {
          "internalType": "address",
          "name": "",
          "type": "address"
        }
      ],
      "name": "flexibleStakes",
      "outputs": [
        {
          "internalType": "uint256",
          "name": "amount",
          "type": "uint256"
        },
        {
          "internalType": "uint256",
          "name": "startTime",
          "type": "uint256"
        },
        {
          "internalType": "bool",
          "name": "isLocked",
          "type": "bool"
        },
        {
          "internalType": "uint256",
          "name": "initialAPY",
          "type": "uint256"
        }
      ],
      "stateMutability": "view",
      "type": "function"
    },
    {
      "inputs": [
        {
          "internalType": "bool",
          "name": "isLocked",
          "type": "bool"
        }
      ],
      "name": "getCurrentAPY",
      "outputs": [
        {
          "internalType": "uint256",
          "name": "",
          "type": "uint256"
        }
      ],
      "stateMutability": "view",
      "type": "function"
    },
    {
      "inputs": [
        {
          "internalType": "address",
          "name": "user",
          "type": "address"
        },
        {
          "internalType": "bool",
          "name": "isLocked",
          "type": "bool"
        }
      ],
      "name": "getPendingReward",
      "outputs": [
        {
          "internalType": "uint256",
          "name": "",
          "type": "uint256"
        }
      ],
      "stateMutability": "view",
      "type": "function"
    },
    {
      "inputs": [
        {
          "internalType": "address",
          "name": "",
          "type": "address"
        }
      ],
      "name": "isAdmin",
      "outputs": [
        {
          "internalType": "bool",
          "name": "",
          "type": "bool"
        }
      ],
      "stateMutability": "view",
      "type": "function"
    },
    {
      "inputs": [
        {
          "internalType": "address",
          "name": "",
          "type": "address"
        }
      ],
      "name": "lockedStakes",
      "outputs": [
        {
          "internalType": "uint256",
          "name": "amount",
          "type": "uint256"
        },
        {
          "internalType": "uint256",
          "name": "startTime",
          "type": "uint256"
        },
        {
          "internalType": "bool",
          "name": "isLocked",
          "type": "bool"
        },
        {
          "internalType": "uint256",
          "name": "initialAPY",
          "type": "uint256"
        }
      ],
      "stateMutability": "view",
      "type": "function"
    },
    {
      "inputs": [],
      "name": "owner",
      "outputs": [
        {
          "internalType": "address",
          "name": "",
          "type": "address"
        }
      ],
      "stateMutability": "view",
      "type": "function"
    },
    {
      "inputs": [
        {
          "internalType": "address",
          "name": "account",
          "type": "address"
        }
      ],
      "name": "removeAdmin",
      "outputs": [],
      "stateMutability": "nonpayable",
      "type": "function"
    },
    {
      "inputs": [],
      "name": "renounceOwnership",
      "outputs": [],
      "stateMutability": "nonpayable",
      "type": "function"
    },
    {
      "inputs": [
        {
          "internalType": "address",
          "name": "token",
          "type": "address"
        },
        {
          "internalType": "uint256",
          "name": "apyLocked",
          "type": "uint256"
        },
        {
          "internalType": "uint256",
          "name": "apyFlexible",
          "type": "uint256"
        },
        {
          "internalType": "uint256",
          "name": "minApy",
          "type": "uint256"
        },
        {
          "internalType": "uint256",
          "name": "decayFactor",
          "type": "uint256"
        }
      ],
      "name": "setStakingParameters",
      "outputs": [],
      "stateMutability": "nonpayable",
      "type": "function"
    },
    {
      "inputs": [
        {
          "internalType": "uint256",
          "name": "amount",
          "type": "uint256"
        },
        {
          "internalType": "bool",
          "name": "isLocked",
          "type": "bool"
        }
      ],
      "name": "stake",
      "outputs": [],
      "stateMutability": "nonpayable",
      "type": "function"
    },
    {
      "inputs": [],
      "name": "stakingToken",
      "outputs": [
        {
          "internalType": "contract IERC20",
          "name": "",
          "type": "address"
        }
      ],
      "stateMutability": "view",
      "type": "function"
    },
    {
      "inputs": [],
      "name": "totalStakedFlexible",
      "outputs": [
        {
          "internalType": "uint256",
          "name": "",
          "type": "uint256"
        }
      ],
      "stateMutability": "view",
      "type": "function"
    },
    {
      "inputs": [],
      "name": "totalStakedLocked",
      "outputs": [
        {
          "internalType": "uint256",
          "name": "",
          "type": "uint256"
        }
      ],
      "stateMutability": "view",
      "type": "function"
    },
    {
      "inputs": [
        {
          "internalType": "address",
          "name": "newOwner",
          "type": "address"
        }
      ],
      "name": "transferOwnership",
      "outputs": [],
      "stateMutability": "nonpayable",
      "type": "function"
    },
    {
      "inputs": [
        {
          "internalType": "bool",
          "name": "isLocked",
          "type": "bool"
        }
      ],
      "name": "unstake",
      "outputs": [],
      "stateMutability": "nonpayable",
      "type": "function"
    }
  ],
  "bytecode": "0x6080604052670429d069189e0000600455670214e8348c4f000060055566b1a2bc2ec5000060065569d3c21bcecceda100000060075534801561004157600080fd5b506040516122e33803806122e3833981810160405281019061006391906102c3565b33600073ffffffffffffffffffffffffffffffffffffffff168173ffffffffffffffffffffffffffffffffffffffff16036100d65760006040517f1e4fbdf70000000000000000000000000000000000000000000000000000000081526004016100cd91906102ff565b60405180910390fd5b6100e58161019c60201b60201c565b50600073ffffffffffffffffffffffffffffffffffffffff168173ffffffffffffffffffffffffffffffffffffffff1603610155576040517f08c379a000000000000000000000000000000000000000000000000000000000815260040161014c90610377565b60405180910390fd5b80600160006101000a81548173ffffffffffffffffffffffffffffffffffffffff021916908373ffffffffffffffffffffffffffffffffffffffff16021790555050610397565b60008060009054906101000a900473ffffffffffffffffffffffffffffffffffffffff169050816000806101000a81548173ffffffffffffffffffffffffffffffffffffffff021916908373ffffffffffffffffffffffffffffffffffffffff1602179055508173ffffffffffffffffffffffffffffffffffffffff168173ffffffffffffffffffffffffffffffffffffffff167f8be0079c531659141344cd1fd0a4f28419497f9722a3daafe3b4186f6b6457e060405160405180910390a35050565b600080fd5b600073ffffffffffffffffffffffffffffffffffffffff82169050919050565b600061029082610265565b9050919050565b6102a081610285565b81146102ab57600080fd5b50565b6000815190506102bd81610297565b92915050565b6000602082840312156102d9576102d8610260565b5b60006102e7848285016102ae565b91505092915050565b6102f981610285565b82525050565b600060208201905061031460008301846102f0565b92915050565b600082825260208201905092915050565b7f496e76616c696420746f6b656e20616464726573730000000000000000000000600082015250565b600061036160158361031a565b915061036c8261032b565b602082019050919050565b6000602082019050818103600083015261039081610354565b9050919050565b611f3d806103a66000396000f3fe608060405234801561001057600080fd5b506004361061010b5760003560e01c806372f702f3116100a2578063abe50f1911610071578063abe50f1914610293578063add2302a146102af578063c2ce3e9b146102e2578063e4d329b814610300578063f2fde38b146103305761010b565b806372f702f3146102085780637c5b4a37146102265780638da5cb5b1461024257806392417dc7146102605761010b565b80634da63f8f116100de5780634da63f8f1461019457806364020daf146101c457806370480275146101e2578063715018a6146101fe5761010b565b8063088abb8d146101105780630dee0c991461012c5780631785f53c1461014857806324d7806c14610164575b600080fd5b61012a6004803603810190610125919061154e565b61034c565b005b6101466004803603810190610141919061160f565b61062d565b005b610162600480360381019061015d919061168a565b610867565b005b61017e6004803603810190610179919061168a565b610956565b60405161018b91906116c6565b60405180910390f35b6101ae60048036038101906101a991906116e1565b610976565b6040516101bb9190611730565b60405180910390f35b6101cc610ad3565b6040516101d99190611730565b60405180910390f35b6101fc60048036038101906101f7919061168a565b610ad9565b005b610206610bab565b005b610210610bbf565b60405161021d91906117aa565b60405180910390f35b610240600480360381019061023b91906117c5565b610be5565b005b61024a610e1f565b6040516102579190611801565b60405180910390f35b61027a6004803603810190610275919061168a565b610e48565b60405161028a949392919061181c565b60405180910390f35b6102ad60048036038101906102a89190611861565b610e85565b005b6102c960048036038101906102c4919061168a565b6110c7565b6040516102d9949392919061181c565b60405180910390f35b6102ea611104565b6040516102f79190611730565b60405180910390f35b61031a6004803603810190610315919061154e565b61110a565b6040516103279190611730565b60405180910390f35b61034a6004803603810190610345919061168a565b61111c565b005b60008161039757600960003373ffffffffffffffffffffffffffffffffffffffff1673ffffffffffffffffffffffffffffffffffffffff1681526020019081526020016000206103d7565b600860003373ffffffffffffffffffffffffffffffffffffffff1673ffffffffffffffffffffffffffffffffffffffff1681526020019081526020016000205b90506000816000015411610420576040517f08c379a0000000000000000000000000000000000000000000000000000000008152600401610417906118fe565b60405180910390fd5b6000816000015490506000831561051d5762278d008360010154610444919061194d565b421061045f576104588284600301546111a2565b905061048d565b60006103e86005846104719190611981565b61047b91906119f2565b905080836104899190611a23565b9250505b8260000154600260008282546104a39190611a23565b92505081905550600860003373ffffffffffffffffffffffffffffffffffffffff1673ffffffffffffffffffffffffffffffffffffffff16815260200190815260200160002060008082016000905560018201600090556002820160006101000a81549060ff0219169055600382016000905550506105cf565b600083600101544261052f9190611a23565b9050610540838286600301546111dc565b91508360000154600360008282546105589190611a23565b92505081905550600960003373ffffffffffffffffffffffffffffffffffffffff1673ffffffffffffffffffffffffffffffffffffffff16815260200190815260200160002060008082016000905560018201600090556002820160006101000a81549060ff021916905560038201600090555050505b6106273382846105df919061194d565b600160009054906101000a900473ffffffffffffffffffffffffffffffffffffffff1673ffffffffffffffffffffffffffffffffffffffff166112149092919063ffffffff16565b50505050565b3373ffffffffffffffffffffffffffffffffffffffff1661064c610e1f565b73ffffffffffffffffffffffffffffffffffffffff1614806106b75750600a60003373ffffffffffffffffffffffffffffffffffffffff1673ffffffffffffffffffffffffffffffffffffffff16815260200190815260200160002060009054906101000a900460ff165b6106f6576040517f08c379a00000000000000000000000000000000000000000000000000000000081526004016106ed90611aa3565b60405180910390fd5b600073ffffffffffffffffffffffffffffffffffffffff168573ffffffffffffffffffffffffffffffffffffffff1603610765576040517f08c379a000000000000000000000000000000000000000000000000000000000815260040161075c90611b0f565b60405180910390fd5b6000841180156107755750600083115b80156107815750600082115b6107c0576040517f08c379a00000000000000000000000000000000000000000000000000000000081526004016107b790611b7b565b60405180910390fd5b60008111610803576040517f08c379a00000000000000000000000000000000000000000000000000000000081526004016107fa90611be7565b60405180910390fd5b84600160006101000a81548173ffffffffffffffffffffffffffffffffffffffff021916908373ffffffffffffffffffffffffffffffffffffffff160217905550836004819055508260058190555081600681905550806007819055505050505050565b61086f611293565b600a60008273ffffffffffffffffffffffffffffffffffffffff1673ffffffffffffffffffffffffffffffffffffffff16815260200190815260200160002060009054906101000a900460ff166108fb576040517f08c379a00000000000000000000000000000000000000000000000000000000081526004016108f290611c53565b60405180910390fd5b6000600a60008373ffffffffffffffffffffffffffffffffffffffff1673ffffffffffffffffffffffffffffffffffffffff16815260200190815260200160002060006101000a81548160ff02191690831515021790555050565b600a6020528060005260406000206000915054906101000a900460ff1681565b600080826109c257600960008573ffffffffffffffffffffffffffffffffffffffff1673ffffffffffffffffffffffffffffffffffffffff168152602001908152602001600020610a02565b600860008573ffffffffffffffffffffffffffffffffffffffff1673ffffffffffffffffffffffffffffffffffffffff1681526020019081526020016000205b60405180608001604052908160008201548152602001600182015481526020016002820160009054906101000a900460ff1615151515815260200160038201548152505090506000816000015103610a5e576000915050610acd565b8215610aa15762278d008160200151610a77919061194d565b4210610a9757610a8f816000015182606001516111a2565b915050610acd565b6000915050610acd565b6000816020015142610ab39190611a23565b9050610ac882600001518284606001516111dc565b925050505b92915050565b60035481565b610ae1611293565b600073ffffffffffffffffffffffffffffffffffffffff168173ffffffffffffffffffffffffffffffffffffffff1603610b50576040517f08c379a0000000000000000000000000000000000000000000000000000000008152600401610b4790611cbf565b60405180910390fd5b6001600a60008373ffffffffffffffffffffffffffffffffffffffff1673ffffffffffffffffffffffffffffffffffffffff16815260200190815260200160002060006101000a81548160ff02191690831515021790555050565b610bb3611293565b610bbd600061131a565b565b600160009054906101000a900473ffffffffffffffffffffffffffffffffffffffff1681565b3373ffffffffffffffffffffffffffffffffffffffff16610c04610e1f565b73ffffffffffffffffffffffffffffffffffffffff161480610c6f5750600a60003373ffffffffffffffffffffffffffffffffffffffff1673ffffffffffffffffffffffffffffffffffffffff16815260200190815260200160002060009054906101000a900460ff165b610cae576040517f08c379a0000000000000000000000000000000000000000000000000000000008152600401610ca590611aa3565b60405180910390fd5b60008111610cf1576040517f08c379a0000000000000000000000000000000000000000000000000000000008152600401610ce890611d2b565b60405180910390fd5b600160009054906101000a900473ffffffffffffffffffffffffffffffffffffffff1673ffffffffffffffffffffffffffffffffffffffff166370a08231306040518263ffffffff1660e01b8152600401610d4c9190611801565b602060405180830381865afa158015610d69573d6000803e3d6000fd5b505050506040513d601f19601f82011682018060405250810190610d8d9190611d60565b811115610dcf576040517f08c379a0000000000000000000000000000000000000000000000000000000008152600401610dc690611dd9565b60405180910390fd5b610e1c3382600160009054906101000a900473ffffffffffffffffffffffffffffffffffffffff1673ffffffffffffffffffffffffffffffffffffffff166112149092919063ffffffff16565b50565b60008060009054906101000a900473ffffffffffffffffffffffffffffffffffffffff16905090565b60086020528060005260406000206000915090508060000154908060010154908060020160009054906101000a900460ff16908060030154905084565b60008211610ec8576040517f08c379a0000000000000000000000000000000000000000000000000000000008152600401610ebf90611d2b565b60405180910390fd5b600081610f1357600960003373ffffffffffffffffffffffffffffffffffffffff1673ffffffffffffffffffffffffffffffffffffffff168152602001908152602001600020610f53565b600860003373ffffffffffffffffffffffffffffffffffffffff1673ffffffffffffffffffffffffffffffffffffffff1681526020019081526020016000205b90506000816000015414610f9c576040517f08c379a0000000000000000000000000000000000000000000000000000000008152600401610f9390611e45565b60405180910390fd5b6000610fa7836113de565b9050838260000181905550428260010181905550828260020160006101000a81548160ff0219169083151502179055508082600301819055508215611004578360026000828254610ff8919061194d565b9250508190555061101e565b8360036000828254611016919061194d565b925050819055505b600160009054906101000a900473ffffffffffffffffffffffffffffffffffffffff1673ffffffffffffffffffffffffffffffffffffffff166323b872dd3330876040518463ffffffff1660e01b815260040161107d93929190611e65565b6020604051808303816000875af115801561109c573d6000803e3d6000fd5b505050506040513d601f19601f820116820180604052508101906110c09190611eb1565b5050505050565b60096020528060005260406000206000915090508060000154908060010154908060020160009054906101000a900460ff16908060030154905084565b60025481565b6000611115826113de565b9050919050565b611124611293565b600073ffffffffffffffffffffffffffffffffffffffff168173ffffffffffffffffffffffffffffffffffffffff16036111965760006040517f1e4fbdf700000000000000000000000000000000000000000000000000000000815260040161118d9190611801565b60405180910390fd5b61119f8161131a565b50565b60006a1a1601fc4ea7109e00000062278d0083856111c09190611981565b6111ca9190611981565b6111d491906119f2565b905092915050565b60006a1a1601fc4ea7109e0000008383866111f79190611981565b6112019190611981565b61120b91906119f2565b90509392505050565b61128e838473ffffffffffffffffffffffffffffffffffffffff1663a9059cbb8585604051602401611247929190611ede565b604051602081830303815290604052915060e01b6020820180517bffffffffffffffffffffffffffffffffffffffffffffffffffffffff8381831617835250505050611467565b505050565b61129b611509565b73ffffffffffffffffffffffffffffffffffffffff166112b9610e1f565b73ffffffffffffffffffffffffffffffffffffffff1614611318576112dc611509565b6040517f118cdaa700000000000000000000000000000000000000000000000000000000815260040161130f9190611801565b60405180910390fd5b565b60008060009054906101000a900473ffffffffffffffffffffffffffffffffffffffff169050816000806101000a81548173ffffffffffffffffffffffffffffffffffffffff021916908373ffffffffffffffffffffffffffffffffffffffff1602179055508173ffffffffffffffffffffffffffffffffffffffff168173ffffffffffffffffffffffffffffffffffffffff167f8be0079c531659141344cd1fd0a4f28419497f9722a3daafe3b4186f6b6457e060405160405180910390a35050565b600080826113ee576005546113f2565b6004545b905060008361140357600354611407565b6002545b9050600754811061141e5760065492505050611462565b6000600754826007546114319190611a23565b8461143c9190611981565b61144691906119f2565b905060065481101561145a5760065461145c565b805b93505050505b919050565b600080602060008451602086016000885af18061148a576040513d6000823e3d81fd5b3d9250600051915050600082146114a55760018114156114c1565b60008473ffffffffffffffffffffffffffffffffffffffff163b145b1561150357836040517f5274afe70000000000000000000000000000000000000000000000000000000081526004016114fa9190611801565b60405180910390fd5b50505050565b600033905090565b600080fd5b60008115159050919050565b61152b81611516565b811461153657600080fd5b50565b60008135905061154881611522565b92915050565b60006020828403121561156457611563611511565b5b600061157284828501611539565b91505092915050565b600073ffffffffffffffffffffffffffffffffffffffff82169050919050565b60006115a68261157b565b9050919050565b6115b68161159b565b81146115c157600080fd5b50565b6000813590506115d3816115ad565b92915050565b6000819050919050565b6115ec816115d9565b81146115f757600080fd5b50565b600081359050611609816115e3565b92915050565b600080600080600060a0868803121561162b5761162a611511565b5b6000611639888289016115c4565b955050602061164a888289016115fa565b945050604061165b888289016115fa565b935050606061166c888289016115fa565b925050608061167d888289016115fa565b9150509295509295909350565b6000602082840312156116a05761169f611511565b5b60006116ae848285016115c4565b91505092915050565b6116c081611516565b82525050565b60006020820190506116db60008301846116b7565b92915050565b600080604083850312156116f8576116f7611511565b5b6000611706858286016115c4565b925050602061171785828601611539565b9150509250929050565b61172a816115d9565b82525050565b60006020820190506117456000830184611721565b92915050565b6000819050919050565b600061177061176b6117668461157b565b61174b565b61157b565b9050919050565b600061178282611755565b9050919050565b600061179482611777565b9050919050565b6117a481611789565b82525050565b60006020820190506117bf600083018461179b565b92915050565b6000602082840312156117db576117da611511565b5b60006117e9848285016115fa565b91505092915050565b6117fb8161159b565b82525050565b600060208201905061181660008301846117f2565b92915050565b60006080820190506118316000830187611721565b61183e6020830186611721565b61184b60408301856116b7565b6118586060830184611721565b95945050505050565b6000806040838503121561187857611877611511565b5b6000611886858286016115fa565b925050602061189785828601611539565b9150509250929050565b600082825260208201905092915050565b7f4e6f20616374697665207374616b6520696e207468697320706f6f6c00000000600082015250565b60006118e8601c836118a1565b91506118f3826118b2565b602082019050919050565b60006020820190508181036000830152611917816118db565b9050919050565b7f4e487b7100000000000000000000000000000000000000000000000000000000600052601160045260246000fd5b6000611958826115d9565b9150611963836115d9565b925082820190508082111561197b5761197a61191e565b5b92915050565b600061198c826115d9565b9150611997836115d9565b92508282026119a5816115d9565b915082820484148315176119bc576119bb61191e565b5b5092915050565b7f4e487b7100000000000000000000000000000000000000000000000000000000600052601260045260246000fd5b60006119fd826115d9565b9150611a08836115d9565b925082611a1857611a176119c3565b5b828204905092915050565b6000611a2e826115d9565b9150611a39836115d9565b9250828203905081811115611a5157611a5061191e565b5b92915050565b7f4e6f7420616e2061646d696e206f72206f776e65720000000000000000000000600082015250565b6000611a8d6015836118a1565b9150611a9882611a57565b602082019050919050565b60006020820190508181036000830152611abc81611a80565b9050919050565b7f496e76616c696420746f6b656e20616464726573730000000000000000000000600082015250565b6000611af96015836118a1565b9150611b0482611ac3565b602082019050919050565b60006020820190508181036000830152611b2881611aec565b9050919050565b7f415059206d757374206265203e20300000000000000000000000000000000000600082015250565b6000611b65600f836118a1565b9150611b7082611b2f565b602082019050919050565b60006020820190508181036000830152611b9481611b58565b9050919050565b7f4465636179206d757374206265203e2030000000000000000000000000000000600082015250565b6000611bd16011836118a1565b9150611bdc82611b9b565b602082019050919050565b60006020820190508181036000830152611c0081611bc4565b9050919050565b7f4e6f7420616e2061646d696e0000000000000000000000000000000000000000600082015250565b6000611c3d600c836118a1565b9150611c4882611c07565b602082019050919050565b60006020820190508181036000830152611c6c81611c30565b9050919050565b7f5a65726f20616464726573730000000000000000000000000000000000000000600082015250565b6000611ca9600c836118a1565b9150611cb482611c73565b602082019050919050565b60006020820190508181036000830152611cd881611c9c565b9050919050565b7f416d6f756e74206d757374206265203e20300000000000000000000000000000600082015250565b6000611d156012836118a1565b9150611d2082611cdf565b602082019050919050565b60006020820190508181036000830152611d4481611d08565b9050919050565b600081519050611d5a816115e3565b92915050565b600060208284031215611d7657611d75611511565b5b6000611d8484828501611d4b565b91505092915050565b7f496e73756666696369656e742062616c616e6365000000000000000000000000600082015250565b6000611dc36014836118a1565b9150611dce82611d8d565b602082019050919050565b60006020820190508181036000830152611df281611db6565b9050919050565b7f556e7374616b652066726f6d207468697320706f6f6c20666972737400000000600082015250565b6000611e2f601c836118a1565b9150611e3a82611df9565b602082019050919050565b60006020820190508181036000830152611e5e81611e22565b9050919050565b6000606082019050611e7a60008301866117f2565b611e8760208301856117f2565b611e946040830184611721565b949350505050565b600081519050611eab81611522565b92915050565b600060208284031215611ec757611ec6611511565b5b6000611ed584828501611e9c565b91505092915050565b6000604082019050611ef360008301856117f2565b611f006020830184611721565b939250505056fea264697066735822122031da22a833a53660145ae4aca6c58f2441744d5c6689c0a141e33a1bfce9838664736f6c634300081c0033",
  "linkReferences": {},
  "deployedLinkReferences": {}
}